:020000020000FC
:0200000083C0BB
:1000480000C0F8940F920FB60F920F900FBE0F904A
:10005800789418950091C00005FFFCCF1093C60056
:1000680008954E9B11E34E9910E3F4DF4F9B11E383
:100078004F9910E3EFDF189B11E3189910E3EADFBB
:10008800199B11E3199910E3E5DF1A9B11E31A99FB
:1000980010E3E0DF1E9B11E31E9910E3DBDF1F9BDB
:1000A80011E31F9910E3D6DF309B11E3309910E379
:1000B800D1DF319B11E3319910E3CCDF329B11E39F
:1000C800329910E3C7DF339B11E3339910E3C2DFA2
:1000D800349B11E3349910E3BDDF359B11E3359967
:1000E80010E3B8DF089500E010E029E10A95F1F780
:1000F8000A951A95D9F70A951A952A95B9F7089580
:10010800F89403E30093C40000E00093C50008E9F5
:100118000093C1000EE00093C2000CE30AB90CE39F
:100128000BB978940FEF0BB95A989BDF5A9A5B98E2
:1001380098DF5B9A5C9895DF5C9A5D9892DF5D9A90
:060148001DE088DFEFCF8F
:00000001FF
