:100000000C944E000C9460000C9460000C94600002
:100010000C9460000C9460000C9460000C946000E0
:100020000C9460000C9460000C9460000C946000D0
:100030000C9460000C9460000C9460000C946000C0
:100040000C9460000C9460000C943A050C946000D1
:100050000C9460000C9460000C9460000C946000A0
:100060000C9460000C9460003F3E3C016D6E627623
:1000700063787A20020D273B6C6B6A68676664734D
:1000800061035C5D5B706F69757974726577710887
:100090003D2D3039383736353433323111241FBED7
:1000A000CFEFD4E0DEBFCDBF11E0A0E0B1E001C0F2
:1000B0001D92A332B107E1F70E9400050C948C0554
:1000C0000C940000209121013091220180911F01A8
:1000D000909120018217930711F4EFEF10C0F901FE
:1000E000E15FFE4FE081C901019690932201809368
:1000F0002101409724F010922201109221018E2FAD
:10010000089520911F0130912001F901E15FFE4F18
:1001100080832F5F3F4F3093200120931F012031B8
:10012000310524F01092200110921F0120911F012F
:1001300030912001809121019091220128173907E7
:1001400061F4C901019690932201809321014097A7
:1001500024F010922201109221010895FC01E85927
:10016000FF4FE4918E2F089540E050E01CC0CB017A
:10017000022E02C0959587950A94E2F780FD09C08A
:10018000FA0183E0EE0FFF1F8A95E1F7E20FF31FFC
:1001900015C02F5F3F4F2830310549F74F5F5F4F44
:1001A0004730510549F0FA01E85FFE4F8081682F22
:1001B00070E020E030E0DBCFEFEFFFEFCF010895FC
:1001C0000E946200982F8F3F39F08091C00085FF18
:1001D000FCCF9093C60008958091C00085FFFCCFAE
:1001E0001092C600089580910001909101018093C2
:1001F0000801409102015091030180709F71242FEA
:100200002295220F207E292B20930901CA0173E039
:10021000969587957A95E1F780930A0120910401DC
:100220003091050140705871952F96959695969549
:10023000822F880F880F892B80930B014091060134
:1002400050910701207C3F7166E0369527956A95AD
:10025000E1F7842F879588278795822B80930C015F
:10026000CA019695879580930D0140705E71852F28
:10027000869580930E010895E8E0F1E090818091E9
:10028000C00085FFFCCF9093C600319681E0EF302F
:10029000F807A1F708951F93E0E0F1E061E070E056
:1002A00011E3B0E3ACE728C0CB01022E02C0880FF7
:1002B000991F0A94E2F784239523892B39F08091C2
:1002C000C00085FFFCCFB093C60006C08091C0007F
:1002D00085FFFCCF1093C6002F5F3F4F2D303105B7
:1002E00019F78091C00085FFFCCFA093C60032961D
:1002F00081E0E830F80729F04081518120E030E0CA
:10030000D3CF8091C00085FFFCCF8DE08093C600E5
:100310001F91089588E38BB94E9B6EC04F9B6CC0B4
:10032000189B6AC0199B68C01A9B66C01E9B64C05C
:100330001F9B62C0309B60C0319B5EC0329B5CC023
:10034000339B5AC0349B58C0359B56C084E38BB94D
:100350004E9B52C04F9B50C0189B4EC0199B4CC027
:100360001A9B4AC01E9B48C01F9B46C0309B44C07E
:10037000319B42C0329B40C0339B3EC0349B3CC04B
:10038000359B3AC08CE28BB94E9B36C04F9B34C034
:10039000189B32C0199B30C01A9B2EC01E9B2CC0CC
:1003A0001F9B2AC0309B28C0319B26C0329B24C093
:1003B000339B22C0349B20C0359B1EC08CE18BB97F
:1003C0004E9B1AC04F9B18C0189B16C0199B14C097
:1003D0001A9B12C01E9B10C01F9B0EC0309B0CC0EE
:1003E000319B0AC0329B08C0339B06C0349B04C0BB
:1003F000359B02C080E008958FEF0895DF93CF937F
:1004000000D0CDB7DEB79A838983898190E002C09E
:10041000959587956A95E2F781700F900F90CF912F
:10042000DF9108953F924F925F926F927F928F92E9
:100430009F92AF92BF92CF92DF92EF92FF920F9373
:100440001F93DF93CF9300D0CDB7DEB78FEF8BB97B
:100450005A9865E0362E832D8A95F1F789B1898304
:100460001A82E98089B18983498083B1898389812E
:1004700023B12983C98023B12983A98023B129838A
:10048000898023B12983698026B12983498126B1D6
:100490002983698126B12983E98126B12983A9812C
:1004A00026B12983098126B12983298190E08170B1
:1004B0009070880F991F880F991FFF2436E0F694DB
:1004C000E7943A95E1F731E0E322FF248E299F2952
:1004D00050E0417050705695542F442757954795DA
:1004E000842B952B441C4424441C5524440C551C3B
:1004F00084299529DD24CC0CDD1CCC0CDD1C38E0D6
:10050000C322DD248C299D29BB24AA0CBB1CAA0C68
:10051000BB1C30E1A322BB248A299B2999249694F1
:10052000879430E28322992488299929661C6624BD
:10053000661C772446E0660C771C4A95E1F786290D
:10054000972970E07695679561707070762F6627B1
:10055000862B972BF0E0F695FE2FEE27F795E79583
:10056000E070F2708E2B9F2BB0E0B695BA2FAA27C1
:10057000B795A795A070B4708A2B9B2B10E01695A9
:10058000102F00271795079500701870802B912B5E
:1005900030E03695322F222737952795207030711D
:1005A000822B932B90930101809300015A9A5B98C0
:1005B000832D8A95F1F749B1E9B183B163B1A3B154
:1005C00003B1A3B026B1E6B0C6B086B066B046B0FF
:1005D00090E081709070880F991F880F991F50E0EC
:1005E0004074507036E0559547953A95E1F7842B65
:1005F000952B30E03695322F22273795279530708E
:10060000822B932BEE1FEE27EE1FF0E0EE0FFF1F65
:100610008E2B9F2B70E0627070707595679553E01C
:10062000660F771F5A95E1F7862B972BB0E0A470E1
:10063000B070B595A795B595A79534E0AA0FBB1FE7
:100640003A95E1F78A2B9B2B10E00074107026E09E
:10065000159507952A95E1F7B5E0000F111FBA959A
:10066000E1F7802B912BAA1CAA24AA1CBB24A6E08C
:10067000AA0CBB1CAA95E1F78A299B29FF2422E03A
:10068000E222FF24F594E794FE2CEE248E299F2984
:10069000DD2434E0C322DD24D594C794D594C794D7
:1006A000DC2CCC24DD0C8C299D29992428E0822285
:1006B000992453E0959487945A95E1F7982C8824CF
:1006C000990C990C88299929772430E163227724A1
:1006D00034E0759467943A95E1F7762C6624770CAC
:1006E000770C770C86299729552420E2422255243D
:1006F00005E0559447940A95E1F7542C442452940C
:1007000010EF5122842995299093030180930201CF
:100710005B9A5C98832D8A95F1F749B1E9B183B171
:1007200063B1A3B103B1A3B026B1E6B0C6B086B041
:1007300066B046B090E081709070880F991F880F66
:10074000991F50E040745070F6E055954795FA9522
:10075000E1F7842B952B30E03695322F2227379501
:1007600027953070822B932BEE1FEE27EE1FF0E0C3
:10077000EE0FFF1F8E2B9F2B70E0627070707595CF
:10078000679533E0660F771F3A95E1F7862B972B35
:10079000B0E0A470B070B595A795B595A79514E095
:1007A000AA0FBB1F1A95E1F78A2B9B2B10E0007450
:1007B0001070A6E015950795AA95E1F7F5E0000FF2
:1007C000111FFA95E1F7802B912BAA1CAA24AA1CD1
:1007D000BB24E6E0AA0CBB1CEA95E1F78A299B2919
:1007E000FF2432E0E322FF24F594E794FE2CEE246C
:1007F0008E299F29DD2424E0C222DD24D594C794CC
:10080000D594C794DC2CCC24DD0C8C299D2999240B
:1008100038E08322992433E0959487943A95E1F760
:10082000982C8824990C990C88299929772420E1FF
:100830006222772404E0759467940A95E1F7762C98
:100840006624770C770C770C86299729552430E29B
:1008500043225524B5E055944794BA95E1F7542CBA
:1008600044245294A0EF5A2284299529909305019B
:10087000809304015C9A5D983A94F1F749B1E9B12B
:1008800083B163B1A3B103B1A3B026B1E6B0C6B0E2
:1008900086B066B046B090E081709070880F991F66
:1008A000880F991F50E04074507076E05595479539
:1008B0007A95E1F7842B952B30E03695322F22275D
:1008C000379527953070822B932BEE1FEE27EE1F66
:1008D000F0E0EE0FFF1F8E2B9F2B70E062707070A8
:1008E0007595679523E0660F771F2A95E1F7862BAC
:1008F000972BB0E0A470B070B595A795B595A79566
:10090000F4E0AA0FBB1FFA95E1F78A2B9B2B10E0AE
:1009100000741070E6E015950795EA95E1F775E02B
:10092000000F111F7A95E1F7802B912BAA1CAA24A6
:10093000AA1CBB2466E0AA0CBB1C6A95E1F78A29B5
:100940009B29FF2422E0E222FF24F594E794FE2C69
:10095000EE248E299F29DD2434E0C322DD24D594A2
:10096000C794D594C794DC2CCC24DD0C8C299D290C
:10097000992428E08222992403E0959487940A958B
:10098000E1F7982C8824990C990C882999297724C7
:1009900030E163227724B4E075946794BA95E1F767
:1009A000762C6624770C770C770C862997295524AA
:1009B00020E242225524F5E055944794FA95E1F758
:1009C000542C44245294E0EF5E228429952990937C
:1009D0000701809306015D9A0F900F90CF91DF91F0
:1009E0001F910F91FF90EF90DF90CF90BF90AF904D
:1009F0009F908F907F906F905F904F903F90089561
:100A0000CF93DF93F89483E38093C4001092C500E2
:100A100088E98093C1008EE08093C20078948CE3D3
:100A20008AB98BB9C0E9D1E00E948A018823E1F339
:100A30000E9412020E94F3000E94B400FC01E859D7
:100A4000FF4FE4918E2F0E9481008EEE92E0FE0116
:100A50003197F1F70197D9F7E7CFF8948093C40065
:100A60001092C50088E98093C1008EE08093C20097
:100A7000789408951F920F920FB60F9211242F931E
:100A80003F934F935F936F937F938F939F93AF9316
:100A9000BF93EF93FF93F8948091C6008434D9F00C
:100AA000853438F4823479F0833480F48134D1F49D
:100AB00007C0863471F0863498F0873499F40EC0FC
:100AC0000E9412020FC00E94F3000CC00E94E000BE
:100AD00009C00E9412020E943C0104C00E9412023E
:100AE0000E944B017894FF91EF91BF91AF919F913C
:100AF0008F917F916F915F914F913F912F910F90C7
:100B00000FBE0F901F901895982F8091C00085FF01
:0C0B1000FCCF9093C6000895F894FFCF2E
:00000001FF
