:100000000C943E090C945B090C945B090C945B09FD
:100010000C945B090C945B090C945B090C945B09D0
:100020000C945B090C945B090C945B090C945B09C0
:100030000C945B090C9472100C945B090C945B0992
:100040000C945B090C945B090C945B090C945B09A0
:100050000C945B097265626F6F7400636C6561720A
:100060000072756E00656469740000FF00FF00FF98
:10007000FFFFFFFFFFFFFFFFFFFFFFFFFFFFFFFF90
:10008000FFFFFFFFFFFFFFFFFFFFFFFFFFFFFFFF80
:10009000FFFFFFFFFFFFFFFFFFFFFFFFFFFFFFFF70
:1000A000FFFFFFFFFFFFFFFFFFFFFFFFFFFFFFFF60
:10102000FFFFFFFFFFFFFFFFFFFF000000000000CA
:1010300000005F000000000700070000147F147F1D
:101040001400242A7F2A1200231308646200364900
:1010500055225000000503000000001C2241000042
:101060000041221C000014083E08140008083E0835
:101070000800005030000000080808080800006060
:10108000600000002010080402003E5149453E0067
:1010900000427F4000004261514946002141454BDA
:1010A00031001814127F10002745454539003C4A8D
:1010B00049493000017109050300364949493600A4
:1010C000064949291E000036360000000056360049
:1010D00000000814224100001414141414000041EC
:1010E00022140800020151090600324979413E00EC
:1010F0007E1111117E007F49494936003E41414130
:1011000022007F4141221C007F49494941007F095B
:10111000090901003E4149497A007F0808087F001B
:1011200000417F4100002040413F01007F08142220
:1011300041007F40404040007F020C027F007F045E
:1011400008107F003E4141413E007F090909060029
:101150003E4151215E007F0919294600464949490F
:10116000310001017F0101003F4040403F001F204E
:1011700040201F003F4038403F00631408146300C4
:10118000070870080700615149454300007F41414D
:1011900000000204081020000041417F000004020A
:1011A00001020400404040404000000102040000F1
:1011B0002054545478007F48444438003844444410
:1011C0002000384444487F00385454541800087EA6
:1011D000090102000C5252523E007F0804047800BC
:1011E00000447D4000002040443D00007F10284422
:1011F000000000417F4000007C04180478007C0857
:10120000040478003844444438007C141414080062
:10121000081414187C007C08040408004854545432
:101220002000043F444020003C4040207C001C2023
:1012300040201C003C4030403C0044281028440022
:101240000C5050503C004464544C4400000836415B
:10125000000000007F000000004136080000100878
:101260000810080078464146780030313233343572
:1012700036373839414243444546000011241FBEE9
:10128000CFE5D8E0DEBFCDBF11E0A0E6B0E0E8E0FA
:10129000FEE202C005900D92AA39B107D9F712E01B
:1012A000AAE9B1E001C01D92A13BB107E1F70E949C
:1012B000FA0D0C9402170C94000083E40E940010B5
:1012C0000E9417108823E1F30E9426100895EF92E0
:1012D000FF920F931F93DF93CF9300D0CDB7DEB76C
:1012E00019821A8260919F0180919D01681B85E09F
:1012F0000E94190E80E00E94C10F8CE30E949A0F99
:1013000000E07E010894E11CF11C0E945D09182F89
:1013100080538A3038F40230D8F5F701E00FF11D20
:1013200080830CC0812F81568630C8F4023080F54E
:10133000F701E00FF11D17551083195A0F5F6091E7
:101340009F0180919D01681B85E00E94190E898193
:101350008295807F9A81892B0E94C10F19C0183015
:10136000B9F4002391F20150F701E00FF11D108252
:1013700060919F0180919D01681B85E00E94190E7C
:1013800089818295807F9A81892B0E94C10FBDCF70
:101390001D3009F0BACF89818295807F9A81892B8F
:1013A0000F900F90CF91DF911F910F91FF90EF90D1
:1013B00008951F93CF93DF9380E00E944F0FC0E00A
:1013C000D0E01FEF80919D018C0F0E94C10F80E63D
:1013D00090E00E94DE0F20919D0130919E012C0F24
:1013E0003D1F80919F019091A0012817390711F4AA
:1013F00010939C01E091A301F091A401E20FF31F6F
:1014000080810E94C10F10929C01C530D10511F05E
:101410000E94EB0F2196C630D105A1F6DF91CF9146
:101420001F9108950F931F939093A4018093A3019C
:101430007093A2016093A1011092A00110929F01EC
:1014400010929E0110929D010E94D9090E945D098F
:101450008E3311F520919F013091A0018091A1015F
:101460009091A20101972817390780F72F5F3F4F0E
:101470003093A00120939F0140919D0150919E01C6
:10148000CA01059682179307F8F64F5F5F4F509396
:101490009E0140939D01D8CF8C33C9F480919F0168
:1014A0009091A001009791F201979093A0018093F1
:1014B0009F0120919D0130919E018217930720F694
:1014C0002150304030939E0120939D01BDCF8D303F
:1014D00079F40091A3011091A40180919F01909152
:1014E000A001080F191F0E946709F8018083ACCF83
:1014F000823009F0ABCF1F910F9108954F925F9208
:101500006F927F928F929F92AF92BF92CF92DF9213
:10151000EF92FF920F931F93CF93DF939093A401C9
:101520008093A3017093A2016093A101E5EAF1E029
:101530001192119261E0E93DF607D1F7EE24FF2404
:10154000B8EC4B2E512C5FC2E091A301F091A401A5
:10155000EF01CE0DDF1D8881873009F4BDC08830D2
:10156000A8F4833009F43FC0843030F4813021F195
:10157000823009F045C228C0853009F46BC087016C
:101580000C5F1F4F863008F08AC047C08A3009F4CC
:10159000E7C08B3038F4883009F4B6C0893009F0E0
:1015A0002FC2C7C08C3009F409C18C3008F4EDC0DB
:1015B0008D3009F025C200C1798066248A81E82E29
:1015C000FF24E628F7281FC2E981F0E0EE0FFF1F95
:1015D000EB55FE4F9A8088248B8190E088299929C9
:1015E00091838083BAC08981482F50E0440F551FF2
:1015F0004B555E4FAB81B0E0AA0FBB1FAB55BE4F42
:10160000EA81F0E0EE0FFF1FEB55FE4F8D919C91AC
:1016100020813181820F931F3CC08981482F50E087
:10162000440F551F4B555E4FAA81B0E0AA0FBB1F58
:10163000AB55BE4FEB81F0E0EE0FFF1FEB55FE4FB9
:101640008D919C9120813181821B930BFA019183B2
:101650008083AEC18981482F50E0440F551F4B5500
:101660005E4FAB81B0E0AA0FBB1FAB55BE4FEA8106
:10167000F0E0EE0FFF1FEB55FE4F2D913C91808166
:101680009181BC01269FC001279F900D369F900D30
:101690001124FA019183808364E070E096C189810E
:1016A000282F30E0220F331F2B553E4FAA81B0E088
:1016B000AA0FBB1FAB55BE4FEB81F0E0EE0FFF1F33
:1016C000EB55FE4F608171818D919C910E94A41613
:1016D000F901718360836CC1A981B0E0AA0FBB1FBF
:1016E000AB55BE4FEA81F0E0EE0FFF1FEB55FE4F0A
:1016F0002D913C91808191812817390769F283E00F
:1017000090E0E80EF91E7FC1A981B0E0AA0FBB1FCF
:10171000AB55BE4FEA81F0E0EE0FFF1FEB55FE4FD9
:101720002D913C9180819181821793070CF04BC1E0
:1017300040C0A981B0E0AA0FBB1FAB55BE4FEA81E4
:10174000F0E0EE0FFF1FEB55FE4F2D913C91808195
:101750009181281739070CF00AC184E090E0D1CFBD
:10176000A981B0E0AA0FBB1FAB55BE4FEA81F0E0E4
:10177000EE0FFF1FEB55FE4F2D913C918081918123
:10178000281739070CF4BBCF87CFA981B0E0AA0F87
:10179000BB1FAB55BE4FEA81F0E0EE0FFF1FEB55CC
:1017A000FE4F2D913C9180819181821793070CF41B
:1017B0000AC1E4E0F0E0DDC0790125C1E70121962E
:1017C000DF01AC0FBD1F8C91873009F4C7C0883092
:1017D000C8F4833009F481C0843040F4813009F4C6
:1017E0009CC0FD01823008F074C02AC0853009F425
:1017F000A1C0EC0FFD1F8E010E5F1F4F863008F059
:10180000A4C08FC08B3009F4D5C08C3060F489300F
:1018100009F4BBC0EC0FFD1F8E010E5F1F4F8A3015
:1018200008F0BEC0A9C08D3009F4D4C08D3008F4D2
:10183000CFC08E3009F4D0C08F3009F0E0C0CEC0E8
:10184000E181F0E0EE0FFF1FEB55FE4F60817181EB
:10185000882777FD8095982F0E94FD135B016C010E
:1018600020E030E04AEF54E40E9473127B018C01C7
:1018700020E030E040E85FE30E94CD1388231CF4B1
:1018800061E070E022C0C801B70120E03FEF4FE700
:1018900057E40E946D131816A4F4C601B50120E0A8
:1018A00030E040E251E40E9473120E949D1005C096
:1018B000C2010197F1F76150704061157105C1F7E0
:1018C00098C0C801B7010E949D10CB010197F1F7A4
:1018D00090C081810E949A0F8CC08E010F5F1F4FB4
:1018E000E00FF11FE081F0E0EE0FFF1FEB55FE4F20
:1018F00081810E94C10FE091A301F091A401E00F4A
:10190000F11FE081F0E0EE0FFF1FEB55FE4F8081ED
:101910000E94C10F0E94EB0FF2CE80E00E944F0F99
:101920006EC0E181F0E0EE0FFF1FEB55FE4F8081AE
:101930008ABB3EC0EC0FFD1FE181F0E0EE0FFF1F00
:10194000EB55FE4F808187BB54C0E181F0E0EE0F84
:10195000FF1FEB55FE4F808184BB2AC01196EC918E
:10196000F0E0EE0FFF1FEB55FE4F808181BBE3E0FF
:10197000F0E0EE0EFF1E47C0E181F0E0EE0FFF1F2A
:10198000EB55FE4F80818BBB13C0EC0FFD1FE18137
:10199000F0E0EE0FFF1FEB55FE4F808188BB29C0A2
:1019A000E181F0E0EE0FFF1FEB55FE4F808185BB1C
:1019B000780129C01196EC91F0E0EE0FFF1FEB5576
:1019C000FE4F808182BB63E070E0E60EF71E1BC015
:1019D0008BB305C088B303C085B301C082B3EC0FDD
:1019E000FD1FE181F0E0EE0FFF1FEB55FE4F8083FE
:1019F000118282E0E82EF12CEC0EFD1E04C07E0167
:101A00000894E11CF11C2091A1013091A201E21681
:101A1000F30608F499CDDF91CF911F910F91FF90BC
:101A2000EF90DF90CF90BF90AF909F908F907F907E
:101A30006F905F904F900895DC01FB0144915C91A1
:101A4000242F30E0852F992787FD90952817390797
:101A500011F080E00895442311F4552319F01196F4
:101A60003196ECCF8FEF0895FF920F931F93FF24D1
:101A700000E00E945D09182F8823D9F3003208F096
:101A800041C081568A31B0F4E02FF0E0FF2031F000
:101A9000E75EFD4F10521083105E03C0E75EFD4FFE
:101AA0001083E02FF0E0E75EFD4F80810E949A0FE7
:101AB0000F5F28C0183081F40023D9F20150E02FC5
:101AC000F0E0E75EFD4F10820E940D0E80E20E9462
:101AD0009A0F0E940D0ECDCF133021F4FF20D9F0C4
:101AE000FF24C7CF123029F2113019F21D3069F0EE
:101AF000E02FF0E0E75EFD4F1083812F0E949A0FE8
:101B00000F5FB7CF1D3009F0B4CF0E94EB0F1F91CC
:101B10000F91FF900895FF24FA94ABCF0E943E0EE0
:101B200080E00E944F0F83E30E94F70F20E030E037
:101B3000F901E752FE4FD901A059BF4F8C91808324
:101B40002F5F3F4F2232310599F7089589E192E0E6
:101B500064E570E00E941C0D882319F00E948E0D30
:101B600024C089E192E06BE570E00E941C0D88239F
:101B700061F08FEF0E944F0FE9EDF1E08FEF81935D
:101B800092E0E931F907D9F721C089E192E061E6F5
:101B900070E00E941C0D882359F089ED91E060E40B
:101BA00070E00E947E0A0E94EB0FE9E1F2E017C0AC
:101BB00089E192E065E670E00E941C0D882351F0F7
:101BC00089ED91E060E470E00E94120A80E00E94DA
:101BD0004F0FEBCF84E690E00E94DE0FE4CF11922E
:101BE00082E0E933F807D9F70E94040E8EE30E94E1
:101BF0009A0F08950E948E0D8EE30E949A0F0E9404
:101C0000340D0E94A60DFBCFE9E3F2E080E2819360
:101C100092E0ED38F907D9F7089580919A01815043
:101C200080939A01089580919A01089580919B0173
:101C3000089580939A0160939B010895C49827E0CA
:101C400030E0482F50E0CA01022E02C095958795DA
:101C50000A94E2F780FF02C0C39A01C0C398C49AF5
:101C6000C498215030408FEF2F3F380761F7089517
:101C7000C198C2980E941E0EC29A08958FE187BB38
:101C800080ED97E028EC30E0F9013197F1F701970A
:101C9000D9F7C09A81E20E94380E80ED0E94380E7A
:101CA00084E00E94380E83E10E94380E80E20E9498
:101CB000380E8CE00E94380E10929A0110929B010F
:101CC000E9E3F2E080E2819392E0ED38F907D9F799
:101CD0000895C19AC2980E941E0EC29A08951F9339
:101CE000162F80680E94380E1770812F80640E9422
:101CF000380E1F910895CF93DF9380E060E00E943B
:101D00006F0ECAE6D0E0FE0184910E94690E219612
:101D1000F0E1CA32DF07B9F7DF91CF9108950F9351
:101D20001F93CF93DF93042F282F30E0862F90E06E
:101D3000880F991FFC0153E0EE0FFF1F5A95E1F742
:101D4000E81BF90BE20FF31FE75CFD4F4083C9016D
:101D5000880F991F820F931F880F0E946F0E86E0D5
:101D6000080280011124005C1040CAE2D0E1FE01AB
:101D7000E00FF11FE4918E2F80950E94690EF8010B
:101D80003196EC0FFD1FE4918E2F80950E94690E15
:101D9000F8013296EC0FFD1FE4918E2F80950E9482
:101DA000690EF8013396EC0FFD1FE4918E2F80959C
:101DB0000E94690E0C5F1F4FFE01E00FF11FE491BE
:101DC0008E2F80950E94690E0F5F1F4FC00FD11F8D
:101DD000FE01849180950E94690EDF91CF911F9141
:101DE0000F9108950F931F93CF93DF93042F282F04
:101DF00030E0862F90E0880F991FFC01A3E0EE0FE2
:101E0000FF1FAA95E1F7E81BF90BE20FF31FE75C50
:101E1000FD4F4083C901880F991F820F931F880FC0
:101E20000E946F0E86E0080280011124005C1040C1
:101E3000CAE2D0E1FE01E00FF11FE4918E2F0E9473
:101E4000690EF8013196EC0FFD1FE4918E2F0E9470
:101E5000690EF8013296EC0FFD1FE4918E2F0E945F
:101E6000690EF8013396EC0FFD1FE4918E2F0E944E
:101E7000690E0C5F1F4FFE01E00FF11FE4918E2FE2
:101E80000E94690E0F5F1F4FC00FD11FFE0184918A
:101E90000E94690EDF91CF911F910F9108951F93BA
:101EA000CF93DF93182F80E060E00E946F0E1092B6
:101EB0009A0110929B01112359F0C0E0D0E08FEFFE
:101EC0000E94690E219681E0C83FD807C1F70AC079
:101ED000C0E0D0E080E00E94690E219681E0C83F1A
:101EE000D807C1F7DF91CF911F910895CF93DF936A
:101EF000E9E3F2E08685819382E0EF37F807D1F7D6
:101F000080E2819392E0ED38F907D9F780E00E94F2
:101F10004F0FC9E3D2E089910E949A0F82E0CF3738
:101F2000D807C9F710929A0185E080939B01DF9151
:101F3000CF910895482F80919C01882339F080919A
:101F40009A0160919B010E948F0E06C080919A01B8
:101F500060919B010E94F20E80919A018F5F8093A5
:101F60009A018E3038F010929A0180919B018F5F18
:101F700080939B0180919B01863010F00E94760F28
:101F80000895EF92FF921F93182F82958F709AE613
:101F9000E92E92E1F92EF701E80FF11D8591949158
:101FA0000E949A0F1F70F701E10FF11D8591949126
:101FB0000E949A0F1F91FF90EF900895CF93DF93A7
:101FC000EC0103C00E949A0F219688818823D1F7E3
:101FD000DF91CF91089510929A0180919B018F5FBC
:101FE00080939B01863010F00E94760F0895F8943C
:101FF00090BD89B988E98AB98EE880BD7894089542
:102000005D9BFECF8CB90895FC0104C05D9BFECFA3
:102010008CB9319680818823C9F708958091AD02EB
:102020009091AE029093B0028093AF02089540E089
:102030002091AD023091AE028091AF029091B0023A
:102040002817390709F041E0842F08952091AF0245
:102050003091B0028091AD029091AE028217930749
:1020600011F4E0E010C0F901E357FD4FE081C90130
:1020700001969093B0028093AF02809724F0109263
:10208000B0021092AF028E2F08952091AD023091D0
:10209000AE02F901E357FD4F80832F5F3F4F30932E
:1020A000AE022093AD022032310524F01092AE0230
:1020B0001092AD022091AD023091AE028091AF023C
:1020C0009091B0022817390761F4C90101969093E5
:1020D000B0028093AF02809724F01092B002109269
:1020E000AF0208951F920F920FB60F9211242F93F3
:1020F0003F934F935F936F937F938F939F93AF9390
:10210000BF93EF93FF93F8948CB10E9445105D9BB1
:10211000FECF82E78CB97894FF91EF91BF91AF9198
:102120009F918F917F916F915F914F913F912F91EF
:102130000F900FBE0F901F901895EF92FF920F9384
:102140001F937B018C0120E030E040E05FE40E94BF
:102150009D1388238CF0C801B70120E030E040E0F7
:102160005FE40E9415120E945B149B01AC01205099
:1021700030404040504806C0C801B7010E945B147F
:102180009B01AC01B901CA011F910F91FF90EF9023
:102190000895A0E0B0E0EFECF0E10C94CB16DC0188
:1021A0002B01FA019C91923008F439C1EB0188812E
:1021B000823008F433C1943069F4843009F02FC1BF
:1021C00011969C9111978981981709F428C1A2E969
:1021D000B0E025C1843009F421C18230A9F49230E5
:1021E00009F01DC19A01AD0188E0EA010990AE0134
:1021F000E90109929E018150C1F7E201898111969E
:102200009C918923818308C1923009F407C11296F9
:102210002D903C901397EB018A819B811496AD9091
:10222000BD90CD90DC901797EC80FD800E811F81D2
:102230009101281B390BB90137FF04C066277727A6
:10224000621B730B603271050CF061C0121613062D
:102250006CF537014801062E04C096948794779454
:1022600067940A94D2F721E030E040E050E004C0E7
:10227000220F331F441F551F6A95D2F7215030405B
:10228000404050402E213F2140235123211531054C
:102290004105510521F021E030E040E050E07901B6
:1022A0008A01E628F728082919293CC0232BD1F1F7
:1022B000260E371E35014601062E04C096948794DB
:1022C000779467940A94D2F721E030E040E050E040
:1022D00004C0220F331F441F551F6A95D2F72150A7
:1022E0003040404050402A213B214C215D212115A6
:1022F00031054105510521F021E030E040E050E09A
:1023000059016A01A628B728C828D9280BC0821508
:1023100093052CF01C01AA24BB24650103C0EE2404
:10232000FF24870111969C91D20111968C919817E8
:1023300009F445C0992339F0A80197012A193B09EE
:102340004C095D0906C0A60195012E193F09400BF5
:10235000510B57FD08C011823382228224833583BA
:10236000468357831DC081E0818333822282882780
:102370009927DC01821B930BA40BB50B84839583F7
:10238000A683B7830DC0220F331F441F551F24831C
:102390003583468357838281938101979383828318
:1023A0002481358146815781DA01C9010197A1094C
:1023B000B1098F5F9F4FAF4FBF4328F30BC091838D
:1023C00033822282EA0CFB1C0C1D1D1DE482F58267
:1023D0000683178383E0808324813581468157817A
:1023E00057FF1AC0C901AA2797FDA095BA2F81707F
:1023F0009070A070B0705695479537952795822BB1
:10240000932BA42BB52B84839583A683B7838281DA
:102410009381019693838283DF0101C0D201CD01B4
:10242000CDB7DEB7E2E10C94E716A0E2B0E0EBE155
:10243000F2E10C94D71669837A838B839C832D8376
:102440003E834F835887E9E0EE2EF12CEC0EFD1E03
:10245000CE010196B7010E94D3158E010F5E1F4F6A
:10246000CE010596B8010E94D3158A8991E089278B
:102470008A8BC701B801AE01475E5F4F0E94C91049
:102480000E94FE14A096E6E00C94F316A0E2B0E0E1
:10249000ECE4F2E10C94D71669837A838B839C83F6
:1024A0002D833E834F835887F9E0EF2EF12CEC0EFD
:1024B000FD1ECE010196B7010E94D3158E010F5E5D
:1024C0001F4FCE010596B8010E94D315C701B80170
:1024D000AE01475E5F4F0E94C9100E94FE14A09695
:1024E000E6E00C94F316A0E2B0E0E9E7F2E10C9428
:1024F000CB1669837A838B839C832D833E834F83A2
:102500005887CE010196BE01675F7F4F0E94D315A9
:10251000CE010596BE016F5E7F4F0E94D31599854F
:10252000923088F089898230C8F0943019F4823072
:1025300051F404C0843029F4923081F482E990E0AF
:10254000C6C0923049F420E09A858A89981321E028
:102550002A87CE010996BBC0823049F420E09A85D3
:102560008A89981321E02A8BCE014196B0C02D8430
:102570003E844F8458886D887E888F88988CEE249E
:10258000FF248701AA24BB24650140E050E060E0FD
:1025900070E0E0E0F0E0C10181709070892BE9F01B
:1025A000E60CF71C081D191D9A01AB012A0D3B1DF5
:1025B0004C1D5D1D80E090E0A0E0B0E0E614F70463
:1025C0000805190520F481E090E0A0E0B0E0BA0130
:1025D000A901480F591F6A1F7B1FAA0CBB1CCC1CEA
:1025E000DD1C97FE08C081E090E0A0E0B0E0A82AE2
:1025F000B92ACA2ADB2A3196E032F10549F0660C85
:10260000771C881C991C5694479437942794C3CF01
:10261000FA85EA892B893C898B859C85280F391F8F
:102620002E5F3F4F17C0CA0181709070892B61F0F7
:1026300016950795F794E79480E090E0A0E0B0E865
:10264000E82AF92A0A2B1B2B76956795579547950B
:102650002F5F3F4F77FDE7CF0CC0440F551F661F1C
:10266000771F17FD4160EE0CFF1C001F111F21504A
:102670003040403090E0590790E0690790E47907D6
:1026800060F32B8F3C8FDB01CA018F779070A070B5
:10269000B07080349105A105B10561F447FD0AC011
:1026A000E114F1040105110529F0405C5F4F6F4F03
:1026B0007F4F40781A8EFE1711F081E08A8F4D8F80
:1026C0005E8F6F8F78A383E0898FCE0149960E9439
:1026D000FE14A096E2E10C94E716A8E1B0E0E3E76F
:1026E000F3E10C94D71669837A838B839C832D83C3
:1026F0003E834F83588789E0E82EF12CEC0EFD1EB7
:10270000CE010196B7010E94D3158E010F5E1F4FB7
:10271000CE010596B8010E94D3158985823040F01C
:102720008989823028F0C701B8010E944B1601C088
:102730008FEF6896E6E00C94F316A8E1B0E0E3EAC8
:10274000F3E10C94D71669837A838B839C832D8362
:102750003E834F83588789E0E82EF12CEC0EFD1E56
:10276000CE010196B7010E94D3158E010F5E1F4F57
:10277000CE010596B8010E94D3158985823040F0BC
:102780008989823028F0C701B8010E944B1601C028
:102790008FEF6896E6E00C94F316A8E1B0E0E3ED65
:1027A000F3E10C94D71669837A838B839C832D8302
:1027B0003E834F83588789E0E82EF12CEC0EFD1EF6
:1027C000CE010196B7010E94D3158E010F5E1F4FF7
:1027D000CE010596B8010E94D3158985823040F05C
:1027E0008989823028F0C701B8010E944B1601C0C8
:1027F00081E06896E6E00C94F316A8E0B0E0E3E030
:10280000F4E10C94D4169B01AC0183E08983DA01D6
:10281000C9018827B7FD83959927AA27BB27B82E1A
:10282000211531054105510519F482E089833AC02B
:102830008823A9F0203080E0380780E0480780E84E
:10284000580729F460E070E080E09FEC30C0EE248F
:10285000FF248701E21AF30A040B150B02C0790169
:102860008A018EE1C82ED12CDC82CB82ED82FE82E1
:102870000F831887C801B7010E94AF14019718167B
:10288000190684F4082E04C0EE0CFF1C001F111F53
:102890000A94D2F7ED82FE820F831887C81AD90AEC
:1028A000DC82CB82BA82CE0101960E94FE14289669
:1028B000E9E00C94F016ACE0B0E0E1E6F4E10C9451
:1028C000DB1669837A838B839C83CE010196BE01DC
:1028D0006B5F7F4F0E94D3158D81823061F1823012
:1028E00050F1843021F48E81882351F12EC02F8144
:1028F000388537FD20C06E812F3131051CF06623ED
:10290000F9F023C08EE190E0821B930B29853A8574
:102910004B855C8504C056954795379527958A95D4
:10292000D2F76623B1F050954095309521953F4FF1
:102930004F4F5F4F0EC020E030E040E050E009C054
:102940002FEF3FEF4FEF5FE704C020E030E040E0C3
:1029500050E8B901CA012C96E2E00C94F716EF9208
:10296000FF920F931F937B018C0180E0E81680E0BB
:10297000F80681E0080780E0180788F48FEFE81672
:10298000F1040105110531F028F088E090E0A0E0A5
:10299000B0E017C080E090E0A0E0B0E012C080E0BE
:1029A000E81680E0F80680E0080781E0180728F0C4
:1029B00088E190E0A0E0B0E004C080E190E0A0E019
:1029C000B0E020E230E040E050E0281B390B4A0B39
:1029D0005B0B04C016950795F794E7948A95D2F798
:1029E000F701E656FF4F8081281B31094109510943
:1029F000C9011F910F91FF90EF900895DF92EF9220
:102A0000FF920F931F93FC01E480F58006811781EC
:102A1000D1808081823048F480E090E0A0E1B0E095
:102A2000E82AF92A0A2B1B2BA5C0843009F49FC081
:102A3000823021F4EE24FF24870105C0E114F10463
:102A40000105110519F4E0E0F0E096C062817381A0
:102A50009FEF623879070CF05BC022E83FEF261B3E
:102A6000370B2A3131052CF020E030E040E050E017
:102A70002AC0B801A701022E04C076956795579524
:102A800047950A94D2F781E090E0A0E0B0E004C05E
:102A9000880F991FAA1FBB1F2A95D2F70197A1097A
:102AA000B1098E219F21A023B1230097A105B10573
:102AB00021F081E090E0A0E0B0E09A01AB01282B8A
:102AC000392B4A2B5B2BDA01C9018F779070A070EC
:102AD000B07080349105A105B10539F427FF09C014
:102AE000205C3F4F4F4F5F4F04C0215C3F4F4F4F23
:102AF0005F4FE0E0F0E02030A0E03A07A0E04A07B6
:102B0000A0E45A0710F0E1E0F0E079018A0127C063
:102B10006038710564F5FB01E158FF4FD801C7012A
:102B20008F779070A070B07080349105A105B105C9
:102B300039F4E7FE0DC080E490E0A0E0B0E004C00E
:102B40008FE390E0A0E0B0E0E80EF91E0A1F1B1F23
:102B500017FF05C016950795F794E794319687E01F
:102B600016950795F794E7948A95D1F705C0EE245A
:102B7000FF248701EFEFF0E06E2F679566276795DA
:102B8000902F9F77D794DD24D7948E2F8695492F49
:102B9000462B582F5D29B701CA011F910F91FF9055
:102BA000EF90DF900895FC01DB014081518122818B
:102BB000622F6F7770E0221F2227221F9381892FB7
:102BC000880F822B282F30E0991F9927991F119683
:102BD0009C93119721153105A9F541155105610502
:102BE000710511F482E037C082E89FEF13969C9341
:102BF0008E9312979A01AB0167E0220F331F441F97
:102C0000551F6A95D1F783E08C930DC0220F331FB7
:102C1000441F551F12968D919C91139701971396FF
:102C20009C938E931297203080E0380780E048070D
:102C300080E4580758F314962D933D934D935C937D
:102C4000179708952F3F310579F441155105610516
:102C5000710519F484E08C93089564FF03C081E04A
:102C60008C9312C01C9210C02F57304013963C9387
:102C70002E93129783E08C9387E0440F551F661FB5
:102C8000771F8A95D1F7706414964D935D936D9379
:102C90007C93179708951F93DC01FB019C91923060
:102CA00008F447C08081823008F443C0943051F466
:102CB00011961C91843099F58181682F70E0611B19
:102CC00071093FC0843021F0923031F48230B9F183
:102CD0008181882389F12DC011961C911197823032
:102CE000F1F081811817D9F412962D913C91139728
:102CF000828193818217930794F028173907BCF0DB
:102D000014968D919D910D90BC91A02D24813581BB
:102D100046815781281739074A075B0718F41123A2
:102D200041F00AC082179307A407B50740F41123A6
:102D300019F061E070E005C06FEF7FEF02C060E066
:102D400070E0CB011F91089597FB092E07260AD04A
:102D500077FD04D00CD006D000201AF47095619550
:102D60007F4F0895F6F7909581959F4F0895AA1B80
:102D7000BB1B51E107C0AA1FBB1FA617B70710F066
:102D8000A61BB70B881F991F5A95A9F78095909598
:102D9000BC01CD0108952F923F924F925F926F92A6
:102DA0007F928F929F92AF92BF92CF92DF92EF92DB
:102DB000FF920F931F93CF93DF93CDB7DEB7CA1B5C
:102DC000DB0B0FB6F894DEBF0FBECDBF09942A8887
:102DD000398848885F846E847D848C849B84AA842F
:102DE000B984C884DF80EE80FD800C811B81AA81BC
:102DF000B981CE0FD11D0FB6F894DEBF0FBECDBF87
:082E0000ED010895F894FFCFE5
:102E0800207C200062616420636F6D6D616E6400D8
:102E18000200FFFF0C04000201000102020002028E
:102E28000303200C08010C00030C08020C0003012A
:102E3800001300000000000000000001020203036C
:102E48000303040404040404040405050505050536
:102E58000505050505050505050506060606060614
:102E680006060606060606060606060606060606FA
:102E780006060606060606060606070707070707E4
:102E880007070707070707070707070707070707CA
:102E980007070707070707070707070707070707BA
:102EA80007070707070707070707070707070707AA
:102EB8000707070707070707070708080808080894
:102EC800080808080808080808080808080808087A
:102ED800080808080808080808080808080808086A
:102EE800080808080808080808080808080808085A
:102EF800080808080808080808080808080808084A
:102F08000808080808080808080808080808080839
:102F18000808080808080808080808080808080829
:102F28000808080808080808080808080808080819
:0A2F3800080808080808080808083F
:00000001FF
