:100000000C94B4010C94D1010C94D1010C94D10145
:100010000C94D1010C94D1010C94D1010C94D10118
:100020000C94D1010C94D1010C94D1010C94D10108
:100030000C94D1010C94D1010C94D1010C94D101F8
:100040000C94D1010C94D1010C94D1010C94D101E8
:100050000C94D1010C94D1010C94D1010C94D101D8
:100060000C94D1010C94D1010000000000000000AC
:1000700004040404000404000A0A0A00000000004A
:10008000000A1F0A1F0A0000040E020E080E0400D8
:1000900000231308043231000C12122C122A04001F
:1000A0000404040000000000080402020204080026
:1000B00004081010100804000004150E15040000B8
:1000C0000004041F040400000000000006040200F5
:1000D0000000001F000000000000000000060600F5
:1000E00000001008040201000E11191513110E0072
:1000F0000406040404040E000E11100804021F007C
:100100000E11100C10110E00080C0A091F0808002F
:100110001F010F1010110E000C02010F11110E0023
:100120001F100804020202000E11110E11110E0020
:100130000E11111E1008060000060600060600003B
:10014000000606000604020008040201020408007A
:1001500000001F001F000000020408100804020035
:100160000E111008040004000E11191519010E00DB
:100170000E11111F111111000F11110F11110F008C
:100180000E11010101110E000F11111111110F00BB
:100190001F01011F01011F001F01011F01010100BB
:1001A0001E01011D11111E001111111F111111004D
:1001B0001F04040404041F001C08080808090600A2
:1001C00011110907091111000101010101011F00AD
:1001D000111B151511111100111113151911110011
:1001E0000E11111111110E000F11110F010101005B
:1001F0000E111111150916000F11110F1111110017
:100200001E01010E10100F001F040404040404005A
:100210001111111111110E00111111110A0A04000E
:100220001111111515150A0011110A040A111100F6
:1002300011110A04040404001F10080402011F0025
:100240000C04040404040C00000102040810000063
:100250000604040404040600040A1100000000005F
:100260000000000000001F00020408000000000061
:1002700000000E101E111E0001010D1311110F00C0
:1002800000000E0101110E001010161911111E00B0
:1002900000000E111F010E000C12020702020200E4
:1002A000001E11111E100E0001010D13111111007D
:1002B0000004000604040E0008000C0808090600EB
:1002C0000202120A060A12000604040404040E00C4
:1002D00000000B151511110000000D131111110074
:1002E00000000E1111110E000000000000000000BF
:1002F00000000F110F010100000016191E10100060
:1003000000000D130101010000000E010E100E008F
:100310000202070202120C0000001111111916004E
:1003200000001111110A04000000111115150A0036
:100330000000110A040A1100000011111E100E0025
:1003400000001F0804021F0018040402040418001F
:100350000404040404040400030404080404030063
:10036000000002150800000011241FBECFEFD4E0EA
:10037000DEBFCDBF11E0A0E0B1E0E2EEF8E002C0E8
:1003800005900D92A833B107D9F711E0A8E3B1E0C9
:1003900001C01D92AA33B107E1F70E941B040C941F
:1003A0006F040C9400008F929F92AF92BF92CF92F5
:1003B000DF92EF92FF920F931F93CF93DF9336E27A
:1003C000C32ED12CC61AD10823E0CC0CDD1C2A95F3
:1003D000E1F7A82EBB2493E0AA0CBB1C9A95E1F789
:1003E000C42FDD27C7FDD09583E0CC0FDD1F8A9594
:1003F000E1F7C859D040EE24FF24B7016A0D7B1DF8
:10040000C6010E94900200E010E0FE018491882E57
:100410009924C401002E02C0959587950A94E2F7AD
:1004200080FD03C080E090E002C08FEF9FEF0E944C
:100430007E020F5F1F4F0830110559F70894E11C29
:10044000F11C2196F8E0EF16F104B9F6DF91CF9197
:100450001F910F91FF90EF90DF90CF90BF90AF90E2
:100460009F908F900895482F809100016091010125
:100470000E94D301809101018F5F80930101873237
:1004800040F081E080930101809100018F5F8093B3
:1004900000010895CF93DF93EC0103C00E94330263
:1004A000219688818823D1F7DF91CF91089528B1D3
:1004B0002A6028B928B12B7E28B98BB9892F990FCA
:1004C000990B85B988B1846188B90895439A28B198
:1004D000297E28B98BB9892F990F990B85B988B1D5
:1004E000846188B908950F931F938B010E9466025F
:1004F000C8010E9457021F910F910895BC0182E22A
:1005000090E00E9473020895BC0180E290E00E9496
:1005100073020895BC0181E290E00E947302089585
:100520000F931F938B010E948A02C8010E948402CC
:100530001F910F9108958FEF84B987B98AB9409AB6
:1005400088EE93E020E931E0F9013197F1F7019766
:10055000D9F7409888EE93E020E931E0F90131972E
:10056000F1F70197D9F78DE188B988EE93E020E99A
:1005700031E0F9013197F1F70197D9F783EE90E077
:1005800068E070E30E94730287EE90E062E170E041
:100590000E9473028FEE90E061E372E10E947302A9
:1005A00080E090E061E070E00E94730281E090E002
:1005B00060E071E00E94730282E090E060E077E02A
:1005C0000E94730283E090E068E170E10E94730290
:1005D00084E090E060E070E00E94730288E090E0C8
:1005E00062E072E00E94730289E090E060E070E0F7
:1005F0000E9473028AE090E060E070E00E94730263
:100600008CE090E060E070E00E9473028DE090E08A
:1006100060E070E00E9473028FE090E060E070E0C4
:100620000E94730280E190E060E070E00E9473023B
:1006300081E190E067E070E00E94730282E190E067
:1006400060E070E00E94730283E190E060E070E09F
:100650000E94730280ED97E020E931E0F9013197C3
:10066000F1F70197D9F780E190E060E974E10E9429
:10067000730281E190E067E272E00E94730288EE0B
:1006800093E020E931E0F9013197F1F70197D9F7CB
:1006900082E190E06CE170E00E94730288EE93E0EA
:1006A00020E931E0F9013197F1F70197D9F783E1BA
:1006B00090E060E07AE10E94730289E290E065E2F6
:1006C00070E00E9473028BE290E06CE070E00E94A8
:1006D000730288EE93E020E931E0F9013197F1F7F8
:1006E0000197D9F780E290E060E070E00E94730229
:1006F00081E290E060E070E00E94730280E390E0AD
:1007000067E071E00E94730281E390E066E073E0CD
:100710000E94730282E390E067E072E00E9473023D
:1007200085E390E066E072E00E94730286E390E069
:1007300068E074E00E94730287E390E066E071E095
:100740000E94730288E390E062E071E00E9473020D
:1007500089E390E067E072E00E9473028CE390E02E
:1007600064E075E00E9473028DE390E063E075E061
:100770000E94730280E590E060E070E00E947302E6
:1007800081E590E06FEE70E00E94730282E590E0F8
:1007900060E070E00E94730283E590E06FE371E037
:1007A0000E94730280E690E060E077EA0E947302A4
:1007B00081E690E061E070E00E9473028AE690E0DA
:1007C00060E070E00E94730280E890E060E070E01A
:1007D0000E94730281E890E060E070E00E94730282
:1007E00082E890E060E070E00E94730283E890E0AD
:1007F00060E070E00E94730284E890E060E070E0E6
:100800000E94730285E890E060E070E00E9473024D
:1008100080E990E060E170E00E94730282E990E07C
:1008200060E076E00E94730287E090E063E371E0AD
:100830000E9473020895CF93DF930E949B02C0E948
:10084000D1E080E090E00E943E0482E091E00E94CE
:100850004A02459A8FEF9FEFFE013197F1F701971A
:10086000D9F78FEF9FEF0E943E04459880E197E211
:10087000FE013197F1F70197D9F7E3CFEF92FF929D
:100880000F931F93CF93DF937C0180E090E060E0B3
:1008900070E00E94900282E290E00E94660200E016
:1008A00010E00DC0C7010E945702219681E0C034BC
:1008B000D807C1F70F5F1F4F003F110519F0C0E0C7
:1008C000D0E0F0CF80E090E060E070E00E94900225
:1008D000DF91CF911F910F91FF90EF900895F894C1
:0208E000FFCF48
:1008E20001014142434445464748494A4B4C4D4E1B
:1008F2004F505152535455565758595A6162636476
:1009020065666768696A6B6C6D6E6F70717273741D
:0809120075767778797A000010
:00000001FF
